{
	"_format": "hh-sol-artifact-1",
	"contractName": "OddOrcs",
	"sourceName": "contracts/OddOrcs.sol",
	"abi": [
		{
			"inputs": [
				{
					"internalType": "string",
					"name": "_name",
					"type": "string"
				},
				{
					"internalType": "string",
					"name": "_symbol",
					"type": "string"
				},
				{
					"internalType": "string",
					"name": "_hiddenMetadataURI",
					"type": "string"
				}
			],
			"stateMutability": "nonpayable",
			"type": "constructor"
		},
		{
			"inputs": [],
			"name": "ApprovalCallerNotOwnerNorApproved",
			"type": "error"
		},
		{
			"inputs": [],
			"name": "ApprovalQueryForNonexistentToken",
			"type": "error"
		},
		{
			"inputs": [],
			"name": "ApproveToCaller",
			"type": "error"
		},
		{
			"inputs": [],
			"name": "BalanceQueryForZeroAddress",
			"type": "error"
		},
		{
			"inputs": [],
			"name": "MintERC2309QuantityExceedsLimit",
			"type": "error"
		},
		{
			"inputs": [],
			"name": "MintToZeroAddress",
			"type": "error"
		},
		{
			"inputs": [],
			"name": "MintZeroQuantity",
			"type": "error"
		},
		{
			"inputs": [],
			"name": "OwnerQueryForNonexistentToken",
			"type": "error"
		},
		{
			"inputs": [],
			"name": "OwnershipNotInitializedForExtraData",
			"type": "error"
		},
		{
			"inputs": [],
			"name": "TransferCallerNotOwnerNorApproved",
			"type": "error"
		},
		{
			"inputs": [],
			"name": "TransferFromIncorrectOwner",
			"type": "error"
		},
		{
			"inputs": [],
			"name": "TransferToNonERC721ReceiverImplementer",
			"type": "error"
		},
		{
			"inputs": [],
			"name": "TransferToZeroAddress",
			"type": "error"
		},
		{
			"inputs": [],
			"name": "URIQueryForNonexistentToken",
			"type": "error"
		},
		{
			"anonymous": false,
			"inputs": [
				{
					"indexed": true,
					"internalType": "address",
					"name": "owner",
					"type": "address"
				},
				{
					"indexed": true,
					"internalType": "address",
					"name": "approved",
					"type": "address"
				},
				{
					"indexed": true,
					"internalType": "uint256",
					"name": "tokenId",
					"type": "uint256"
				}
			],
			"name": "Approval",
			"type": "event"
		},
		{
			"anonymous": false,
			"inputs": [
				{
					"indexed": true,
					"internalType": "address",
					"name": "owner",
					"type": "address"
				},
				{
					"indexed": true,
					"internalType": "address",
					"name": "operator",
					"type": "address"
				},
				{
					"indexed": false,
					"internalType": "bool",
					"name": "approved",
					"type": "bool"
				}
			],
			"name": "ApprovalForAll",
			"type": "event"
		},
		{
			"anonymous": false,
			"inputs": [
				{
					"indexed": true,
					"internalType": "uint256",
					"name": "fromTokenId",
					"type": "uint256"
				},
				{
					"indexed": false,
					"internalType": "uint256",
					"name": "toTokenId",
					"type": "uint256"
				},
				{
					"indexed": true,
					"internalType": "address",
					"name": "from",
					"type": "address"
				},
				{
					"indexed": true,
					"internalType": "address",
					"name": "to",
					"type": "address"
				}
			],
			"name": "ConsecutiveTransfer",
			"type": "event"
		},
		{
			"anonymous": false,
			"inputs": [
				{
					"indexed": true,
					"internalType": "address",
					"name": "previousOwner",
					"type": "address"
				},
				{
					"indexed": true,
					"internalType": "address",
					"name": "newOwner",
					"type": "address"
				}
			],
			"name": "OwnershipTransferred",
			"type": "event"
		},
		{
			"anonymous": false,
			"inputs": [
				{
					"indexed": true,
					"internalType": "address",
					"name": "from",
					"type": "address"
				},
				{
					"indexed": true,
					"internalType": "address",
					"name": "to",
					"type": "address"
				},
				{
					"indexed": true,
					"internalType": "uint256",
					"name": "tokenId",
					"type": "uint256"
				}
			],
			"name": "Transfer",
			"type": "event"
		},
		{
			"inputs": [
				{
					"internalType": "address",
					"name": "to",
					"type": "address"
				},
				{
					"internalType": "uint256",
					"name": "tokenId",
					"type": "uint256"
				}
			],
			"name": "approve",
			"outputs": [],
			"stateMutability": "nonpayable",
			"type": "function"
		},
		{
			"inputs": [
				{
					"internalType": "address",
					"name": "owner",
					"type": "address"
				}
			],
			"name": "balanceOf",
			"outputs": [
				{
					"internalType": "uint256",
					"name": "",
					"type": "uint256"
				}
			],
			"stateMutability": "view",
			"type": "function"
		},
		{
			"inputs": [],
			"name": "baseExtension",
			"outputs": [
				{
					"internalType": "string",
					"name": "",
					"type": "string"
				}
			],
			"stateMutability": "view",
			"type": "function"
		},
		{
			"inputs": [],
			"name": "baseURI",
			"outputs": [
				{
					"internalType": "string",
					"name": "",
					"type": "string"
				}
			],
			"stateMutability": "view",
			"type": "function"
		},
		{
			"inputs": [
				{
					"internalType": "uint256",
					"name": "tokenId",
					"type": "uint256"
				}
			],
			"name": "getApproved",
			"outputs": [
				{
					"internalType": "address",
					"name": "",
					"type": "address"
				}
			],
			"stateMutability": "view",
			"type": "function"
		},
		{
			"inputs": [],
			"name": "hiddenMetadataURI",
			"outputs": [
				{
					"internalType": "string",
					"name": "",
					"type": "string"
				}
			],
			"stateMutability": "view",
			"type": "function"
		},
		{
			"inputs": [
				{
					"internalType": "address",
					"name": "owner",
					"type": "address"
				},
				{
					"internalType": "address",
					"name": "operator",
					"type": "address"
				}
			],
			"name": "isApprovedForAll",
			"outputs": [
				{
					"internalType": "bool",
					"name": "",
					"type": "bool"
				}
			],
			"stateMutability": "view",
			"type": "function"
		},
		{
			"inputs": [
				{
					"internalType": "address",
					"name": "_user",
					"type": "address"
				}
			],
			"name": "isOrclisted",
			"outputs": [
				{
					"internalType": "bool",
					"name": "",
					"type": "bool"
				}
			],
			"stateMutability": "view",
			"type": "function"
		},
		{
			"inputs": [],
			"name": "maxMintAmount",
			"outputs": [
				{
					"internalType": "uint256",
					"name": "",
					"type": "uint256"
				}
			],
			"stateMutability": "view",
			"type": "function"
		},
		{
			"inputs": [],
			"name": "maxSupply",
			"outputs": [
				{
					"internalType": "uint256",
					"name": "",
					"type": "uint256"
				}
			],
			"stateMutability": "view",
			"type": "function"
		},
		{
			"inputs": [
				{
					"internalType": "uint256",
					"name": "quantity",
					"type": "uint256"
				}
			],
			"name": "mint",
			"outputs": [],
			"stateMutability": "payable",
			"type": "function"
		},
		{
			"inputs": [],
			"name": "name",
			"outputs": [
				{
					"internalType": "string",
					"name": "",
					"type": "string"
				}
			],
			"stateMutability": "view",
			"type": "function"
		},
		{
			"inputs": [],
			"name": "nftPerAddressLimit",
			"outputs": [
				{
					"internalType": "uint256",
					"name": "",
					"type": "uint256"
				}
			],
			"stateMutability": "view",
			"type": "function"
		},
		{
			"inputs": [],
			"name": "onlyOrcList",
			"outputs": [
				{
					"internalType": "bool",
					"name": "",
					"type": "bool"
				}
			],
			"stateMutability": "view",
			"type": "function"
		},
		{
			"inputs": [
				{
					"internalType": "address[]",
					"name": "_users",
					"type": "address[]"
				}
			],
			"name": "orclistUsers",
			"outputs": [],
			"stateMutability": "nonpayable",
			"type": "function"
		},
		{
			"inputs": [
				{
					"internalType": "uint256",
					"name": "",
					"type": "uint256"
				}
			],
			"name": "orclistedAddresses",
			"outputs": [
				{
					"internalType": "address",
					"name": "",
					"type": "address"
				}
			],
			"stateMutability": "view",
			"type": "function"
		},
		{
			"inputs": [],
			"name": "orcsReveal",
			"outputs": [],
			"stateMutability": "nonpayable",
			"type": "function"
		},
		{
			"inputs": [],
			"name": "orcsRevealed",
			"outputs": [
				{
					"internalType": "bool",
					"name": "",
					"type": "bool"
				}
			],
			"stateMutability": "view",
			"type": "function"
		},
		{
			"inputs": [],
			"name": "owner",
			"outputs": [
				{
					"internalType": "address",
					"name": "",
					"type": "address"
				}
			],
			"stateMutability": "view",
			"type": "function"
		},
		{
			"inputs": [
				{
					"internalType": "uint256",
					"name": "tokenId",
					"type": "uint256"
				}
			],
			"name": "ownerOf",
			"outputs": [
				{
					"internalType": "address",
					"name": "",
					"type": "address"
				}
			],
			"stateMutability": "view",
			"type": "function"
		},
		{
			"inputs": [
				{
					"internalType": "bool",
					"name": "_state",
					"type": "bool"
				}
			],
			"name": "pause",
			"outputs": [],
			"stateMutability": "nonpayable",
			"type": "function"
		},
		{
			"inputs": [],
			"name": "paused",
			"outputs": [
				{
					"internalType": "bool",
					"name": "",
					"type": "bool"
				}
			],
			"stateMutability": "view",
			"type": "function"
		},
		{
			"inputs": [],
			"name": "price",
			"outputs": [
				{
					"internalType": "uint256",
					"name": "",
					"type": "uint256"
				}
			],
			"stateMutability": "view",
			"type": "function"
		},
		{
			"inputs": [],
			"name": "renounceOwnership",
			"outputs": [],
			"stateMutability": "nonpayable",
			"type": "function"
		},
		{
			"inputs": [
				{
					"internalType": "address",
					"name": "from",
					"type": "address"
				},
				{
					"internalType": "address",
					"name": "to",
					"type": "address"
				},
				{
					"internalType": "uint256",
					"name": "tokenId",
					"type": "uint256"
				}
			],
			"name": "safeTransferFrom",
			"outputs": [],
			"stateMutability": "nonpayable",
			"type": "function"
		},
		{
			"inputs": [
				{
					"internalType": "address",
					"name": "from",
					"type": "address"
				},
				{
					"internalType": "address",
					"name": "to",
					"type": "address"
				},
				{
					"internalType": "uint256",
					"name": "tokenId",
					"type": "uint256"
				},
				{
					"internalType": "bytes",
					"name": "_data",
					"type": "bytes"
				}
			],
			"name": "safeTransferFrom",
			"outputs": [],
			"stateMutability": "nonpayable",
			"type": "function"
		},
		{
			"inputs": [
				{
					"internalType": "uint256",
					"name": "_limit",
					"type": "uint256"
				}
			],
			"name": "setAddressLimit",
			"outputs": [],
			"stateMutability": "nonpayable",
			"type": "function"
		},
		{
			"inputs": [
				{
					"internalType": "address",
					"name": "operator",
					"type": "address"
				},
				{
					"internalType": "bool",
					"name": "approved",
					"type": "bool"
				}
			],
			"name": "setApprovalForAll",
			"outputs": [],
			"stateMutability": "nonpayable",
			"type": "function"
		},
		{
			"inputs": [
				{
					"internalType": "string",
					"name": "_newBaseURI",
					"type": "string"
				}
			],
			"name": "setBaseURI",
			"outputs": [],
			"stateMutability": "nonpayable",
			"type": "function"
		},
		{
			"inputs": [
				{
					"internalType": "string",
					"name": "_hiddenMetadataURI",
					"type": "string"
				}
			],
			"name": "setHiddenMetadataURI",
			"outputs": [],
			"stateMutability": "nonpayable",
			"type": "function"
		},
		{
			"inputs": [
				{
					"internalType": "uint256",
					"name": "_newMaxMintAmount",
					"type": "uint256"
				}
			],
			"name": "setMaxMintAmount",
			"outputs": [],
			"stateMutability": "nonpayable",
			"type": "function"
		},
		{
			"inputs": [
				{
					"internalType": "bool",
					"name": "_state",
					"type": "bool"
				}
			],
			"name": "setOnlyOrclisted",
			"outputs": [],
			"stateMutability": "nonpayable",
			"type": "function"
		},
		{
			"inputs": [
				{
					"internalType": "uint256",
					"name": "_newPrice",
					"type": "uint256"
				}
			],
			"name": "setPrice",
			"outputs": [],
			"stateMutability": "nonpayable",
			"type": "function"
		},
		{
			"inputs": [
				{
					"internalType": "bytes4",
					"name": "interfaceId",
					"type": "bytes4"
				}
			],
			"name": "supportsInterface",
			"outputs": [
				{
					"internalType": "bool",
					"name": "",
					"type": "bool"
				}
			],
			"stateMutability": "view",
			"type": "function"
		},
		{
			"inputs": [],
			"name": "symbol",
			"outputs": [
				{
					"internalType": "string",
					"name": "",
					"type": "string"
				}
			],
			"stateMutability": "view",
			"type": "function"
		},
		{
			"inputs": [
				{
					"internalType": "uint256",
					"name": "tokenId",
					"type": "uint256"
				}
			],
			"name": "tokenURI",
			"outputs": [
				{
					"internalType": "string",
					"name": "",
					"type": "string"
				}
			],
			"stateMutability": "view",
			"type": "function"
		},
		{
			"inputs": [],
			"name": "totalSupply",
			"outputs": [
				{
					"internalType": "uint256",
					"name": "",
					"type": "uint256"
				}
			],
			"stateMutability": "view",
			"type": "function"
		},
		{
			"inputs": [
				{
					"internalType": "address",
					"name": "from",
					"type": "address"
				},
				{
					"internalType": "address",
					"name": "to",
					"type": "address"
				},
				{
					"internalType": "uint256",
					"name": "tokenId",
					"type": "uint256"
				}
			],
			"name": "transferFrom",
			"outputs": [],
			"stateMutability": "nonpayable",
			"type": "function"
		},
		{
			"inputs": [
				{
					"internalType": "address",
					"name": "newOwner",
					"type": "address"
				}
			],
			"name": "transferOwnership",
			"outputs": [],
			"stateMutability": "nonpayable",
			"type": "function"
		},
		{
			"inputs": [],
			"name": "withdraw",
			"outputs": [],
			"stateMutability": "payable",
			"type": "function"
		}
	],
	"bytecode": "0x60c06040526005608090815264173539b7b760d91b60a052600a9062000026908262000237565b5066354a6ba7a18000600d556005600e819055600f556010805462ffffff1916620100011790553480156200005a57600080fd5b5060405162002357380380620023578339810160408190526200007d91620003b2565b828260026200008d838262000237565b5060036200009c828262000237565b5050600160005550620000af33620000c3565b620000ba8162000115565b50505062000443565b600880546001600160a01b038381166001600160a01b0319831681179093556040519116919082907f8be0079c531659141344cd1fd0a4f28419497f9722a3daafe3b4186f6b6457e090600090a35050565b6200011f62000131565b600b6200012d828262000237565b5050565b6008546001600160a01b03163314620001905760405162461bcd60e51b815260206004820181905260248201527f4f776e61626c653a2063616c6c6572206973206e6f7420746865206f776e6572604482015260640160405180910390fd5b565b634e487b7160e01b600052604160045260246000fd5b600181811c90821680620001bd57607f821691505b602082108103620001de57634e487b7160e01b600052602260045260246000fd5b50919050565b601f8211156200023257600081815260208120601f850160051c810160208610156200020d5750805b601f850160051c820191505b818110156200022e5782815560010162000219565b5050505b505050565b81516001600160401b0381111562000253576200025362000192565b6200026b81620002648454620001a8565b84620001e4565b602080601f831160018114620002a357600084156200028a5750858301515b600019600386901b1c1916600185901b1785556200022e565b600085815260208120601f198616915b82811015620002d457888601518255948401946001909101908401620002b3565b5085821015620002f35787850151600019600388901b60f8161c191681555b5050505050600190811b01905550565b600082601f8301126200031557600080fd5b81516001600160401b038082111562000332576200033262000192565b604051601f8301601f19908116603f011681019082821181831017156200035d576200035d62000192565b816040528381526020925086838588010111156200037a57600080fd5b600091505b838210156200039e57858201830151818301840152908201906200037f565b600093810190920192909252949350505050565b600080600060608486031215620003c857600080fd5b83516001600160401b0380821115620003e057600080fd5b620003ee8783880162000303565b945060208601519150808211156200040557600080fd5b620004138783880162000303565b935060408601519150808211156200042a57600080fd5b50620004398682870162000303565b9150509250925092565b611f0480620004536000396000f3fe60806040526004361061023b5760003560e01c806372c3bd0d1161012e578063ba7d2c76116100ab578063d5abeb011161006f578063d5abeb0114610656578063df6f837a1461066c578063e985e9c51461068b578063ef110813146106ab578063f2fde38b146106c057600080fd5b8063ba7d2c76146105d6578063ba9e12f7146105ec578063c4d2042c14610601578063c668286214610621578063c87b56dd1461063657600080fd5b8063a0712d68116100f2578063a0712d6814610543578063a22cb46514610556578063ab3cfa6914610576578063b88d4fde14610596578063b8d2a9c3146105b657600080fd5b806372c3bd0d146104ba5780638da5cb5b146104da57806391b7f5ed146104f857806395d89b4114610518578063a035b1fe1461052d57600080fd5b80632bcdf3f4116101bc5780635c975abb116101805780635c975abb146104365780636352211e146104505780636c0360eb1461047057806370a0823114610485578063715018a6146104a557600080fd5b80632bcdf3f4146103ae5780633ccfd60b146103ce57806342842e0e146103d6578063512507c6146103f657806355f804b31461041657600080fd5b8063095ea7b311610203578063095ea7b31461031157806318160ddd14610331578063239c70ae1461035857806323b872dd1461036e578063283cb52c1461038e57600080fd5b806301ffc9a71461024057806302329a291461027557806306fdde0314610297578063081812fc146102b9578063088a4ed0146102f1575b600080fd5b34801561024c57600080fd5b5061026061025b366004611848565b6106e0565b60405190151581526020015b60405180910390f35b34801561028157600080fd5b5061029561029036600461187a565b610732565b005b3480156102a357600080fd5b506102ac61074d565b60405161026c91906118e5565b3480156102c557600080fd5b506102d96102d43660046118f8565b6107df565b6040516001600160a01b03909116815260200161026c565b3480156102fd57600080fd5b5061029561030c3660046118f8565b610823565b34801561031d57600080fd5b5061029561032c366004611928565b610830565b34801561033d57600080fd5b5060015460005403600019015b60405190815260200161026c565b34801561036457600080fd5b5061034a600e5481565b34801561037a57600080fd5b50610295610389366004611952565b6108d0565b34801561039a57600080fd5b506102956103a936600461198e565b610a69565b3480156103ba57600080fd5b506102956103c93660046118f8565b610a82565b610295610a8f565b3480156103e257600080fd5b506102956103f1366004611952565b610aef565b34801561040257600080fd5b50610295610411366004611a8f565b610b0a565b34801561042257600080fd5b50610295610431366004611a8f565b610b22565b34801561044257600080fd5b506010546102609060ff1681565b34801561045c57600080fd5b506102d961046b3660046118f8565b610b36565b34801561047c57600080fd5b506102ac610b41565b34801561049157600080fd5b5061034a6104a0366004611ad8565b610bcf565b3480156104b157600080fd5b50610295610c1e565b3480156104c657600080fd5b506102956104d536600461187a565b610c32565b3480156104e657600080fd5b506008546001600160a01b03166102d9565b34801561050457600080fd5b506102956105133660046118f8565b610c56565b34801561052457600080fd5b506102ac610c63565b34801561053957600080fd5b5061034a600d5481565b6102956105513660046118f8565b610c72565b34801561056257600080fd5b50610295610571366004611af3565b610f2c565b34801561058257600080fd5b506010546102609062010000900460ff1681565b3480156105a257600080fd5b506102956105b1366004611b26565b610fc1565b3480156105c257600080fd5b506102606105d1366004611ad8565b61100b565b3480156105e257600080fd5b5061034a600f5481565b3480156105f857600080fd5b506102ac611074565b34801561060d57600080fd5b506102d961061c3660046118f8565b611081565b34801561062d57600080fd5b506102ac6110ab565b34801561064257600080fd5b506102ac6106513660046118f8565b6110b8565b34801561066257600080fd5b5061034a611e6181565b34801561067857600080fd5b5060105461026090610100900460ff1681565b34801561069757600080fd5b506102606106a6366004611ba2565b61122c565b3480156106b757600080fd5b5061029561125a565b3480156106cc57600080fd5b506102956106db366004611ad8565b611273565b60006301ffc9a760e01b6001600160e01b03198316148061071157506380ac58cd60e01b6001600160e01b03198316145b8061072c5750635b5e139f60e01b6001600160e01b03198316145b92915050565b61073a6112e9565b6010805460ff1916911515919091179055565b60606002805461075c90611bcc565b80601f016020809104026020016040519081016040528092919081815260200182805461078890611bcc565b80156107d55780601f106107aa576101008083540402835291602001916107d5565b820191906000526020600020905b8154815290600101906020018083116107b857829003601f168201915b5050505050905090565b60006107ea82611343565b610807576040516333d1c03960e21b815260040160405180910390fd5b506000908152600660205260409020546001600160a01b031690565b61082b6112e9565b600e55565b600061083b82610b36565b9050336001600160a01b0382161461087457610857813361122c565b610874576040516367d9dca160e11b815260040160405180910390fd5b60008281526006602052604080822080546001600160a01b0319166001600160a01b0387811691821790925591518593918516917f8c5be1e5ebec7d5bd14f71427d1e84f3dd0314c0f7b2291e5b200ac8c7c3b92591a4505050565b60006108db82611378565b9050836001600160a01b0316816001600160a01b03161461090e5760405162a1148160e81b815260040160405180910390fd5b60008281526006602052604090208054338082146001600160a01b0388169091141761095b5761093e863361122c565b61095b57604051632ce44b5f60e11b815260040160405180910390fd5b6001600160a01b03851661098257604051633a954ecd60e21b815260040160405180910390fd5b801561098d57600082555b6001600160a01b038681166000908152600560205260408082208054600019019055918716808252919020805460010190554260a01b17600160e11b17600085815260046020526040812091909155600160e11b84169003610a1f57600184016000818152600460205260408120549003610a1d576000548114610a1d5760008181526004602052604090208490555b505b83856001600160a01b0316876001600160a01b03167fddf252ad1be2c89b69c2b068fc378daa952ba7f163c4a11628f55a4df523b3ef60405160405180910390a45b505050505050565b610a716112e9565b610a7d600c83836117ba565b505050565b610a8a6112e9565b600f55565b610a976112e9565b604051600090339047908381818185875af1925050503d8060008114610ad9576040519150601f19603f3d011682016040523d82523d6000602084013e610ade565b606091505b5050905080610aec57600080fd5b50565b610a7d83838360405180602001604052806000815250610fc1565b610b126112e9565b600b610b1e8282611c4c565b5050565b610b2a6112e9565b6009610b1e8282611c4c565b600061072c82611378565b60098054610b4e90611bcc565b80601f0160208091040260200160405190810160405280929190818152602001828054610b7a90611bcc565b8015610bc75780601f10610b9c57610100808354040283529160200191610bc7565b820191906000526020600020905b815481529060010190602001808311610baa57829003601f168201915b505050505081565b60006001600160a01b038216610bf8576040516323d3ad8160e21b815260040160405180910390fd5b506001600160a01b031660009081526005602052604090205467ffffffffffffffff1690565b610c266112e9565b610c3060006113e7565b565b610c3a6112e9565b60108054911515620100000262ff000019909216919091179055565b610c5e6112e9565b600d55565b60606003805461075c90611bcc565b8060008111610cc85760405162461bcd60e51b815260206004820152601c60248201527f4d757374206d696e74206d6f7265207468616e203020746f6b656e730000000060448201526064015b60405180910390fd5b600154600054611e619183910360001901610ce39190611d22565b1115610d2a5760405162461bcd60e51b8152602060048201526016602482015275139bdd08195b9bdd59da081d1bdad95b9cc81b19599d60521b6044820152606401610cbf565b8180600d54610d399190611d35565b341015610dae5760405162461bcd60e51b815260206004820152603c60248201527f4e6f7420656e6f75676820657468657220686173206265656e2073656e74207460448201527f6f206761696e20656e74727920746f206d6964646c65206561727468000000006064820152608401610cbf565b60105460ff1615610e115760405162461bcd60e51b815260206004820152602760248201527f546865204f726320636f756e63696c20686173207061757365642074686520636044820152661bdb9d1c9858dd60ca1b6064820152608401610cbf565b600e54336000908152600560205260409081902054610e3b911c67ffffffffffffffff1685611d22565b1115610e895760405162461bcd60e51b815260206004820152601a60248201527f457863656564656420746865206c696d6974206f66204f7263730000000000006044820152606401610cbf565b6008546001600160a01b03163314610f225760105462010000900460ff161515600103610f2257610eb93361100b565b610f055760405162461bcd60e51b815260206004820152601b60248201527f55736572206973206e6f74206f6e20746865204f7263204c69737400000000006044820152606401610cbf565b6000610f1033610bcf565b9050600f548110610f2057600080fd5b505b610a7d3384611439565b336001600160a01b03831603610f555760405163b06307db60e01b815260040160405180910390fd5b3360008181526007602090815260408083206001600160a01b03871680855290835292819020805460ff191686151590811790915590519081529192917f17307eab39ab6107e8899845ad3d59bd9653f200f220920489ca2b5937696c31910160405180910390a35050565b610fcc8484846108d0565b6001600160a01b0383163b1561100557610fe884848484611453565b611005576040516368d2bf6b60e11b815260040160405180910390fd5b50505050565b6000805b600c5481101561106b57826001600160a01b0316600c828154811061103657611036611d54565b6000918252602090912001546001600160a01b0316036110595750600192915050565b8061106381611d6a565b91505061100f565b50600092915050565b600b8054610b4e90611bcc565b600c818154811061109157600080fd5b6000918252602090912001546001600160a01b0316905081565b600a8054610b4e90611bcc565b60606110c382611343565b6111275760405162461bcd60e51b815260206004820152602f60248201527f4552433732314d657461646174613a2055524920717565727920666f72206e6f60448201526e3732bc34b9ba32b73a103a37b5b2b760891b6064820152608401610cbf565b601054610100900460ff1615156000036111cd57600b805461114890611bcc565b80601f016020809104026020016040519081016040528092919081815260200182805461117490611bcc565b80156111c15780601f10611196576101008083540402835291602001916111c1565b820191906000526020600020905b8154815290600101906020018083116111a457829003601f168201915b50505050509050919050565b60006111d761153f565b905060008151116111f75760405180602001604052806000815250611225565b806112018461154e565b600a60405160200161121593929190611d83565b6040516020818303038152906040525b9392505050565b6001600160a01b03918216600090815260076020908152604080832093909416825291909152205460ff1690565b6112626112e9565b6010805461ff001916610100179055565b61127b6112e9565b6001600160a01b0381166112e05760405162461bcd60e51b815260206004820152602660248201527f4f776e61626c653a206e6577206f776e657220697320746865207a65726f206160448201526564647265737360d01b6064820152608401610cbf565b610aec816113e7565b6008546001600160a01b03163314610c305760405162461bcd60e51b815260206004820181905260248201527f4f776e61626c653a2063616c6c6572206973206e6f7420746865206f776e65726044820152606401610cbf565b600081600111158015611357575060005482105b801561072c575050600090815260046020526040902054600160e01b161590565b600081806001116113ce576000548110156113ce5760008181526004602052604081205490600160e01b821690036113cc575b806000036112255750600019016000818152600460205260409020546113ab565b505b604051636f96cda160e11b815260040160405180910390fd5b600880546001600160a01b038381166001600160a01b0319831681179093556040519116919082907f8be0079c531659141344cd1fd0a4f28419497f9722a3daafe3b4186f6b6457e090600090a35050565b610b1e82826040518060200160405280600081525061164f565b604051630a85bd0160e11b81526000906001600160a01b0385169063150b7a0290611488903390899088908890600401611e23565b6020604051808303816000875af19250505080156114c3575060408051601f3d908101601f191682019092526114c091810190611e60565b60015b611521573d8080156114f1576040519150601f19603f3d011682016040523d82523d6000602084013e6114f6565b606091505b508051600003611519576040516368d2bf6b60e11b815260040160405180910390fd5b805181602001fd5b6001600160e01b031916630a85bd0160e11b1490505b949350505050565b60606009805461075c90611bcc565b6060816000036115755750506040805180820190915260018152600360fc1b602082015290565b8160005b811561159f578061158981611d6a565b91506115989050600a83611e93565b9150611579565b60008167ffffffffffffffff8111156115ba576115ba611a03565b6040519080825280601f01601f1916602001820160405280156115e4576020820181803683370190505b5090505b8415611537576115f9600183611ea7565b9150611606600a86611eba565b611611906030611d22565b60f81b81838151811061162657611626611d54565b60200101906001600160f81b031916908160001a905350611648600a86611e93565b94506115e8565b61165983836116bc565b6001600160a01b0383163b15610a7d576000548281035b6116836000868380600101945086611453565b6116a0576040516368d2bf6b60e11b815260040160405180910390fd5b8181106116705781600054146116b557600080fd5b5050505050565b60008054908290036116e15760405163b562e8dd60e01b815260040160405180910390fd5b6001600160a01b03831660008181526005602090815260408083208054680100000000000000018802019055848352600490915281206001851460e11b4260a01b178317905582840190839083907fddf252ad1be2c89b69c2b068fc378daa952ba7f163c4a11628f55a4df523b3ef8180a4600183015b81811461179057808360007fddf252ad1be2c89b69c2b068fc378daa952ba7f163c4a11628f55a4df523b3ef600080a4600101611758565b50816000036117b157604051622e076360e81b815260040160405180910390fd5b60005550505050565b82805482825590600052602060002090810192821561180d579160200282015b8281111561180d5781546001600160a01b0319166001600160a01b038435161782556020909201916001909101906117da565b5061181992915061181d565b5090565b5b80821115611819576000815560010161181e565b6001600160e01b031981168114610aec57600080fd5b60006020828403121561185a57600080fd5b813561122581611832565b8035801515811461187557600080fd5b919050565b60006020828403121561188c57600080fd5b61122582611865565b60005b838110156118b0578181015183820152602001611898565b50506000910152565b600081518084526118d1816020860160208601611895565b601f01601f19169290920160200192915050565b60208152600061122560208301846118b9565b60006020828403121561190a57600080fd5b5035919050565b80356001600160a01b038116811461187557600080fd5b6000806040838503121561193b57600080fd5b61194483611911565b946020939093013593505050565b60008060006060848603121561196757600080fd5b61197084611911565b925061197e60208501611911565b9150604084013590509250925092565b600080602083850312156119a157600080fd5b823567ffffffffffffffff808211156119b957600080fd5b818501915085601f8301126119cd57600080fd5b8135818111156119dc57600080fd5b8660208260051b85010111156119f157600080fd5b60209290920196919550909350505050565b634e487b7160e01b600052604160045260246000fd5b600067ffffffffffffffff80841115611a3457611a34611a03565b604051601f8501601f19908116603f01168101908282118183101715611a5c57611a5c611a03565b81604052809350858152868686011115611a7557600080fd5b858560208301376000602087830101525050509392505050565b600060208284031215611aa157600080fd5b813567ffffffffffffffff811115611ab857600080fd5b8201601f81018413611ac957600080fd5b61153784823560208401611a19565b600060208284031215611aea57600080fd5b61122582611911565b60008060408385031215611b0657600080fd5b611b0f83611911565b9150611b1d60208401611865565b90509250929050565b60008060008060808587031215611b3c57600080fd5b611b4585611911565b9350611b5360208601611911565b925060408501359150606085013567ffffffffffffffff811115611b7657600080fd5b8501601f81018713611b8757600080fd5b611b9687823560208401611a19565b91505092959194509250565b60008060408385031215611bb557600080fd5b611bbe83611911565b9150611b1d60208401611911565b600181811c90821680611be057607f821691505b602082108103611c0057634e487b7160e01b600052602260045260246000fd5b50919050565b601f821115610a7d57600081815260208120601f850160051c81016020861015611c2d5750805b601f850160051c820191505b81811015610a6157828155600101611c39565b815167ffffffffffffffff811115611c6657611c66611a03565b611c7a81611c748454611bcc565b84611c06565b602080601f831160018114611caf5760008415611c975750858301515b600019600386901b1c1916600185901b178555610a61565b600085815260208120601f198616915b82811015611cde57888601518255948401946001909101908401611cbf565b5085821015611cfc5787850151600019600388901b60f8161c191681555b5050505050600190811b01905550565b634e487b7160e01b600052601160045260246000fd5b8082018082111561072c5761072c611d0c565b6000816000190483118215151615611d4f57611d4f611d0c565b500290565b634e487b7160e01b600052603260045260246000fd5b600060018201611d7c57611d7c611d0c565b5060010190565b600084516020611d968285838a01611895565b855191840191611da98184848a01611895565b8554920191600090611dba81611bcc565b60018281168015611dd25760018114611de757611e13565b60ff1984168752821515830287019450611e13565b896000528560002060005b84811015611e0b57815489820152908301908701611df2565b505082870194505b50929a9950505050505050505050565b6001600160a01b0385811682528416602082015260408101839052608060608201819052600090611e56908301846118b9565b9695505050505050565b600060208284031215611e7257600080fd5b815161122581611832565b634e487b7160e01b600052601260045260246000fd5b600082611ea257611ea2611e7d565b500490565b8181038181111561072c5761072c611d0c565b600082611ec957611ec9611e7d565b50069056fea264697066735822122020663823f3682ca03da8ca4896efa159bc092c6c6005e431965426f86b59027364736f6c63430008100033000000000000000000000000000000000000000000000000000000000000006000000000000000000000000000000000000000000000000000000000000000a000000000000000000000000000000000000000000000000000000000000000e000000000000000000000000000000000000000000000000000000000000000084f6464204f72637300000000000000000000000000000000000000000000000000000000000000000000000000000000000000000000000000000000000000034f524300000000000000000000000000000000000000000000000000000000000000000000000000000000000000000000000000000000000000000000000041697066733a2f2f516d5931676b6e4a427371736f52525236746d374c5a5864554850434b6d553434674b44646e4c6e65386b676a582f68696464656e2e6a736f6e00000000000000000000000000000000000000000000000000000000000000",
	"linkReferences": {},
	"deployedLinkReferences": {}
}